27042015013837SenderID280420150259001103                        Originator name                                                                                                                                                               10001Batch Description                  C                                                                                                                                                                                                                                                                                                                                                                                                                                                                                                                                                                                                                                                                                                                                               01
20customer reference 1234567890123456DBSSSGSGXXX                        0039002572                        Receiving name                                                                                                                              BEXPSGD00000011100                                   Payment details 12345678901234567890123456789012345678901234567890 123456789012345678901234567890 123456789012345678901234567890            NUltimate Originator Name                                                                                                                    Ultimate Receiving Name                                                                                                                                                                                                                                                                                                                                                                                                           10
20customer reference 1234567890123456DBSSSGSGXXX                        0039002580                        Receiving name                                                                                                                              BEXPSGD00000022200                                   Payment details 12345678901234567890123456789012345678901234567890 123456789012345678901234567890 123456789012345678901234567890            NUltimate Originator Name                                                                                                                    Ultimate Receiving Name                                                                                                                                                                                                                                                                                                                                                                                                           10
20customer reference 1234567890123456DBSSSGSGXXX                        0030015769                        Receiving name                                                                                                                              BEXPSGD00000033300                                   Payment details 12345678901234567890123456789012345678901234567890 123456789012345678901234567890 123456789012345678901234567890            NUltimate Originator Name                                                                                                                    Ultimate Receiving Name                                                                                                                                                                                                                                                                                                                                                                                                           10
20customer reference 1234567890123456DBSSSGSGXXX                        0030016412                        Receiving name                                                                                                                              BEXPSGD00000044400                                   Payment details 12345678901234567890123456789012345678901234567890 123456789012345678901234567890 123456789012345678901234567890            NUltimate Originator Name                                                                                                                    Ultimate Receiving Name                                                                                                                                                                                                                                                                                                                                                                                                           10
20customer reference 1234567890123456DBSSSGSGXXX                        0259001090                        Receiving name                                                                                                                              BEXPSGD00000055500                                   Payment details 12345678901234567890123456789012345678901234567890 123456789012345678901234567890 123456789012345678901234567890            NUltimate Originator Name                                                                                                                    Ultimate Receiving Name                                                                                                                                                                                                                                                                                                                                                                                                           10
20customer reference 1234567890123456DBSSSGSGXXX                        0259001111                        Receiving name                                                                                                                              BEXPSGD00000066600                                   Payment details 12345678901234567890123456789012345678901234567890 123456789012345678901234567890 123456789012345678901234567890            NUltimate Originator Name                                                                                                                    Ultimate Receiving Name                                                                                                                                                                                                                                                                                                                                                                                                           10
20customer reference 1234567890123456DBSSSGSGXXX                        0039002637                        Receiving name                                                                                                                              BEXPSGD00000077700                                   Payment details 12345678901234567890123456789012345678901234567890 123456789012345678901234567890 123456789012345678901234567890            NUltimate Originator Name                                                                                                                    Ultimate Receiving Name                                                                                                                                                                                                                                                                                                                                                                                                           10
20customer reference 1234567890123456DBSSSGSGXXX                        0100703387                        Receiving name                                                                                                                              BEXPSGD00000088800                                   Payment details 12345678901234567890123456789012345678901234567890 123456789012345678901234567890 123456789012345678901234567890            NUltimate Originator Name                                                                                                                    Ultimate Receiving Name                                                                                                                                                                                                                                                                                                                                                                                                           10
20customer reference 1234567890123456DBSSSGSGXXX                        0100703395                        Receiving name                                                                                                                              BEXPSGD00000099900                                   Payment details 12345678901234567890123456789012345678901234567890 123456789012345678901234567890 123456789012345678901234567890            NUltimate Originator Name                                                                                                                    Ultimate Receiving Name                                                                                                                                                                                                                                                                                                                                                                                                           10
20customer reference 1234567890123456DBSSSGSGXXX                        0100703425                        Receiving name                                                                                                                              BEXPSGD00000119900                                   Payment details 12345678901234567890123456789012345678901234567890 123456789012345678901234567890 123456789012345678901234567890            NUltimate Originator Name                                                                                                                    Ultimate Receiving Name                                                                                                                                                                                                                                                                                                                                                                                                           10
20customer reference 1234567890123456DBSSSGSGXXX                        0100703433                        Receiving name                                                                                                                              BEXPSGD00000229900                                   Payment details 12345678901234567890123456789012345678901234567890 123456789012345678901234567890 123456789012345678901234567890            NUltimate Originator Name                                                                                                                    Ultimate Receiving Name                                                                                                                                                                                                                                                                                                                                                                                                           10
20customer reference 1234567890123456DBSSSGSGXXX                        0100703441                        Receiving name                                                                                                                              BEXPSGD00000339900                                   Payment details 12345678901234567890123456789012345678901234567890 123456789012345678901234567890 123456789012345678901234567890            NUltimate Originator Name                                                                                                                    Ultimate Receiving Name                                                                                                                                                                                                                                                                                                                                                                                                           10
20customer reference 1234567890123456DBSSSGSGXXX                        0100703450                        Receiving name                                                                                                                              BEXPSGD00000449900                                   Payment details 12345678901234567890123456789012345678901234567890 123456789012345678901234567890 123456789012345678901234567890            NUltimate Originator Name                                                                                                                    Ultimate Receiving Name                                                                                                                                                                                                                                                                                                                                                                                                           10
20customer reference 1234567890123456DBSSSGSGXXX                        0100703468                        Receiving name                                                                                                                              BEXPSGD00000559900                                   Payment details 12345678901234567890123456789012345678901234567890 123456789012345678901234567890 123456789012345678901234567890            NUltimate Originator Name                                                                                                                    Ultimate Receiving Name                                                                                                                                                                                                                                                                                                                                                                                                           10
20customer reference 1234567890123456DBSSSGSGXXX                        0100703476                        Receiving name                                                                                                                              BEXPSGD00000669900                                   Payment details 12345678901234567890123456789012345678901234567890 123456789012345678901234567890 123456789012345678901234567890            NUltimate Originator Name                                                                                                                    Ultimate Receiving Name                                                                                                                                                                                                                                                                                                                                                                                                           10
20customer reference 1234567890123456DBSSSGSGXXX                        0100703484                        Receiving name                                                                                                                              BEXPSGD00000779900                                   Payment details 12345678901234567890123456789012345678901234567890 123456789012345678901234567890 123456789012345678901234567890            NUltimate Originator Name                                                                                                                    Ultimate Receiving Name                                                                                                                                                                                                                                                                                                                                                                                                           10
20customer reference 1234567890123456DBSSSGSGXXX                        0011227958                        Receiving name                                                                                                                              BEXPSGD00000889900                                   Payment details 12345678901234567890123456789012345678901234567890 123456789012345678901234567890 123456789012345678901234567890            NUltimate Originator Name                                                                                                                    Ultimate Receiving Name                                                                                                                                                                                                                                                                                                                                                                                                           10
20customer reference 1234567890123456DBSSSGSGXXX                        0011228946                        Receiving name                                                                                                                              BEXPSGD00000999900                                   Payment details 12345678901234567890123456789012345678901234567890 123456789012345678901234567890 123456789012345678901234567890            NUltimate Originator Name                                                                                                                    Ultimate Receiving Name                                                                                                                                                                                                                                                                                                                                                                                                           10
20customer reference 1234567890123456DBSSSGSGXXX                        951382892                         Receiving name                                                                                                                              BEXPSGD00001119900                                   Payment details 12345678901234567890123456789012345678901234567890 123456789012345678901234567890 123456789012345678901234567890            NUltimate Originator Name                                                                                                                    Ultimate Receiving Name                                                                                                                                                                                                                                                                                                                                                                                                           10
20customer reference 1234567890123456DBSSSGSGXXX                        951700711                         Receiving name                                                                                                                              BEXPSGD00001229900                                   Payment details 12345678901234567890123456789012345678901234567890 123456789012345678901234567890 123456789012345678901234567890            NUltimate Originator Name                                                                                                                    Ultimate Receiving Name                                                                                                                                                                                                                                                                                                                                                                                                           10
20customer reference 1234567890123456DBSSSGSGXXX                        301402570                         Receiving name                                                                                                                              BEXPSGD00001339900                                   Payment details 12345678901234567890123456789012345678901234567890 123456789012345678901234567890 123456789012345678901234567890            NUltimate Originator Name                                                                                                                    Ultimate Receiving Name                                                                                                                                                                                                                                                                                                                                                                                                           10
20customer reference 1234567890123456DBSSSGSGXXX                        402705981                         Receiving name                                                                                                                              BEXPSGD00001449900                                   Payment details 12345678901234567890123456789012345678901234567890 123456789012345678901234567890 123456789012345678901234567890            NUltimate Originator Name                                                                                                                    Ultimate Receiving Name                                                                                                                                                                                                                                                                                                                                                                                                           10
20customer reference 1234567890123456DBSSSGSGXXX                        0030001620                        Receiving name                                                                                                                              BEXPSGD00001559900                                   Payment details 12345678901234567890123456789012345678901234567890 123456789012345678901234567890 123456789012345678901234567890            NUltimate Originator Name                                                                                                                    Ultimate Receiving Name                                                                                                                                                                                                                                                                                                                                                                                                           10
20customer reference 1234567890123456DBSSSGSGXXX                        0036001622                        Receiving name                                                                                                                              BEXPSGD00001669900                                   Payment details 12345678901234567890123456789012345678901234567890 123456789012345678901234567890 123456789012345678901234567890            NUltimate Originator Name                                                                                                                    Ultimate Receiving Name                                                                                                                                                                                                                                                                                                                                                                                                           10
20customer reference 1234567890123456ANZBSGSGXXX                        111111111                         Receiving name                                                                                                                              BEXPSGD00001779900                                   Payment details 12345678901234567890123456789012345678901234567890 123456789012345678901234567890 123456789012345678901234567890            NUltimate Originator Name                                                                                                                    Ultimate Receiving Name                                                                                                                                                                                                                                                                                                                                                                                                           10
20customer reference 1234567890123456BKKBSGSGXXX                        222222222                         Receiving name                                                                                                                              BEXPSGD00001889900                                   Payment details 12345678901234567890123456789012345678901234567890 123456789012345678901234567890 123456789012345678901234567890            NUltimate Originator Name                                                                                                                    Ultimate Receiving Name                                                                                                                                                                                                                                                                                                                                                                                                           10
0000000002600000000001757780000000000000000000000000000000                          31341437052                                                                                                                                                                                                                                                                                                                                                                                                                                                                                                                                                                                                                                                                                                                                                                                                                                                                                                                                       20